{
  "_format": "hh-sol-artifact-1",
  "contractName": "EmotionalShapes",
  "sourceName": "contracts/EmotionalShapes.sol",
  "abi": [
    {
      "inputs": [],
      "stateMutability": "nonpayable",
      "type": "constructor"
    },
    {
      "anonymous": false,
      "inputs": [
        {
          "indexed": true,
          "internalType": "address",
          "name": "owner",
          "type": "address"
        },
        {
          "indexed": true,
          "internalType": "address",
          "name": "approved",
          "type": "address"
        },
        {
          "indexed": true,
          "internalType": "uint256",
          "name": "tokenId",
          "type": "uint256"
        }
      ],
      "name": "Approval",
      "type": "event"
    },
    {
      "anonymous": false,
      "inputs": [
        {
          "indexed": true,
          "internalType": "address",
          "name": "owner",
          "type": "address"
        },
        {
          "indexed": true,
          "internalType": "address",
          "name": "operator",
          "type": "address"
        },
        {
          "indexed": false,
          "internalType": "bool",
          "name": "approved",
          "type": "bool"
        }
      ],
      "name": "ApprovalForAll",
      "type": "event"
    },
    {
      "anonymous": false,
      "inputs": [
        {
          "indexed": true,
          "internalType": "uint256",
          "name": "tokenId",
          "type": "uint256"
        },
        {
          "indexed": true,
          "internalType": "address",
          "name": "lord",
          "type": "address"
        },
        {
          "indexed": true,
          "internalType": "address",
          "name": "renter",
          "type": "address"
        },
        {
          "indexed": false,
          "internalType": "uint256",
          "name": "expiresAt",
          "type": "uint256"
        }
      ],
      "name": "FinishedRent",
      "type": "event"
    },
    {
      "anonymous": false,
      "inputs": [
        {
          "indexed": true,
          "internalType": "address",
          "name": "previousOwner",
          "type": "address"
        },
        {
          "indexed": true,
          "internalType": "address",
          "name": "newOwner",
          "type": "address"
        }
      ],
      "name": "OwnershipTransferred",
      "type": "event"
    },
    {
      "anonymous": false,
      "inputs": [
        {
          "indexed": true,
          "internalType": "uint256",
          "name": "tokenId",
          "type": "uint256"
        },
        {
          "indexed": true,
          "internalType": "address",
          "name": "lord",
          "type": "address"
        },
        {
          "indexed": true,
          "internalType": "address",
          "name": "renter",
          "type": "address"
        },
        {
          "indexed": false,
          "internalType": "uint256",
          "name": "expiresAt",
          "type": "uint256"
        }
      ],
      "name": "Rented",
      "type": "event"
    },
    {
      "anonymous": false,
      "inputs": [
        {
          "indexed": true,
          "internalType": "address",
          "name": "from",
          "type": "address"
        },
        {
          "indexed": true,
          "internalType": "address",
          "name": "to",
          "type": "address"
        },
        {
          "indexed": true,
          "internalType": "uint256",
          "name": "tokenId",
          "type": "uint256"
        }
      ],
      "name": "Transfer",
      "type": "event"
    },
    {
      "inputs": [
        {
          "internalType": "address",
          "name": "to",
          "type": "address"
        },
        {
          "internalType": "uint256",
          "name": "tokenId",
          "type": "uint256"
        }
      ],
      "name": "approve",
      "outputs": [],
      "stateMutability": "nonpayable",
      "type": "function"
    },
    {
      "inputs": [
        {
          "internalType": "address",
          "name": "owner",
          "type": "address"
        }
      ],
      "name": "balanceOf",
      "outputs": [
        {
          "internalType": "uint256",
          "name": "",
          "type": "uint256"
        }
      ],
      "stateMutability": "view",
      "type": "function"
    },
    {
      "inputs": [
        {
          "internalType": "uint256",
          "name": "tokenId",
          "type": "uint256"
        }
      ],
      "name": "finishRenting",
      "outputs": [],
      "stateMutability": "nonpayable",
      "type": "function"
    },
    {
      "inputs": [
        {
          "internalType": "uint256",
          "name": "tokenId",
          "type": "uint256"
        }
      ],
      "name": "getApproved",
      "outputs": [
        {
          "internalType": "address",
          "name": "",
          "type": "address"
        }
      ],
      "stateMutability": "view",
      "type": "function"
    },
    {
      "inputs": [
        {
          "internalType": "address",
          "name": "owner",
          "type": "address"
        },
        {
          "internalType": "address",
          "name": "operator",
          "type": "address"
        }
      ],
      "name": "isApprovedForAll",
      "outputs": [
        {
          "internalType": "bool",
          "name": "",
          "type": "bool"
        }
      ],
      "stateMutability": "view",
      "type": "function"
    },
    {
      "inputs": [
        {
          "internalType": "address",
          "name": "to",
          "type": "address"
        }
      ],
      "name": "mint",
      "outputs": [
        {
          "internalType": "uint256",
          "name": "",
          "type": "uint256"
        }
      ],
      "stateMutability": "nonpayable",
      "type": "function"
    },
    {
      "inputs": [],
      "name": "name",
      "outputs": [
        {
          "internalType": "string",
          "name": "",
          "type": "string"
        }
      ],
      "stateMutability": "view",
      "type": "function"
    },
    {
      "inputs": [],
      "name": "owner",
      "outputs": [
        {
          "internalType": "address",
          "name": "",
          "type": "address"
        }
      ],
      "stateMutability": "view",
      "type": "function"
    },
    {
      "inputs": [
        {
          "internalType": "uint256",
          "name": "tokenId",
          "type": "uint256"
        }
      ],
      "name": "ownerOf",
      "outputs": [
        {
          "internalType": "address",
          "name": "",
          "type": "address"
        }
      ],
      "stateMutability": "view",
      "type": "function"
    },
    {
      "inputs": [],
      "name": "renounceOwnership",
      "outputs": [],
      "stateMutability": "nonpayable",
      "type": "function"
    },
    {
      "inputs": [
        {
          "internalType": "address",
          "name": "renter",
          "type": "address"
        },
        {
          "internalType": "uint256",
          "name": "tokenId",
          "type": "uint256"
        },
        {
          "internalType": "uint256",
          "name": "expiresAt",
          "type": "uint256"
        }
      ],
      "name": "rentOut",
      "outputs": [],
      "stateMutability": "nonpayable",
      "type": "function"
    },
    {
      "inputs": [
        {
          "internalType": "uint256",
          "name": "",
          "type": "uint256"
        }
      ],
      "name": "rental",
      "outputs": [
        {
          "internalType": "bool",
          "name": "isActive",
          "type": "bool"
        },
        {
          "internalType": "address",
          "name": "lord",
          "type": "address"
        },
        {
          "internalType": "address",
          "name": "renter",
          "type": "address"
        },
        {
          "internalType": "uint256",
          "name": "expiresAt",
          "type": "uint256"
        }
      ],
      "stateMutability": "view",
      "type": "function"
    },
    {
      "inputs": [
        {
          "internalType": "address",
          "name": "to",
          "type": "address"
        }
      ],
      "name": "safeMint",
      "outputs": [],
      "stateMutability": "nonpayable",
      "type": "function"
    },
    {
      "inputs": [
        {
          "internalType": "address",
          "name": "from",
          "type": "address"
        },
        {
          "internalType": "address",
          "name": "to",
          "type": "address"
        },
        {
          "internalType": "uint256",
          "name": "tokenId",
          "type": "uint256"
        }
      ],
      "name": "safeTransferFrom",
      "outputs": [],
      "stateMutability": "nonpayable",
      "type": "function"
    },
    {
      "inputs": [
        {
          "internalType": "address",
          "name": "from",
          "type": "address"
        },
        {
          "internalType": "address",
          "name": "to",
          "type": "address"
        },
        {
          "internalType": "uint256",
          "name": "tokenId",
          "type": "uint256"
        },
        {
          "internalType": "bytes",
          "name": "_data",
          "type": "bytes"
        }
      ],
      "name": "safeTransferFrom",
      "outputs": [],
      "stateMutability": "nonpayable",
      "type": "function"
    },
    {
      "inputs": [
        {
          "internalType": "address",
          "name": "operator",
          "type": "address"
        },
        {
          "internalType": "bool",
          "name": "approved",
          "type": "bool"
        }
      ],
      "name": "setApprovalForAll",
      "outputs": [],
      "stateMutability": "nonpayable",
      "type": "function"
    },
    {
      "inputs": [
        {
          "internalType": "bytes4",
          "name": "interfaceId",
          "type": "bytes4"
        }
      ],
      "name": "supportsInterface",
      "outputs": [
        {
          "internalType": "bool",
          "name": "",
          "type": "bool"
        }
      ],
      "stateMutability": "view",
      "type": "function"
    },
    {
      "inputs": [],
      "name": "symbol",
      "outputs": [
        {
          "internalType": "string",
          "name": "",
          "type": "string"
        }
      ],
      "stateMutability": "view",
      "type": "function"
    },
    {
      "inputs": [
        {
          "internalType": "uint256",
          "name": "index",
          "type": "uint256"
        }
      ],
      "name": "tokenByIndex",
      "outputs": [
        {
          "internalType": "uint256",
          "name": "",
          "type": "uint256"
        }
      ],
      "stateMutability": "view",
      "type": "function"
    },
    {
      "inputs": [
        {
          "internalType": "address",
          "name": "owner",
          "type": "address"
        },
        {
          "internalType": "uint256",
          "name": "index",
          "type": "uint256"
        }
      ],
      "name": "tokenOfOwnerByIndex",
      "outputs": [
        {
          "internalType": "uint256",
          "name": "",
          "type": "uint256"
        }
      ],
      "stateMutability": "view",
      "type": "function"
    },
    {
      "inputs": [
        {
          "internalType": "uint256",
          "name": "tokenId",
          "type": "uint256"
        }
      ],
      "name": "tokenURI",
      "outputs": [
        {
          "internalType": "string",
          "name": "",
          "type": "string"
        }
      ],
      "stateMutability": "view",
      "type": "function"
    },
    {
      "inputs": [],
      "name": "totalSupply",
      "outputs": [
        {
          "internalType": "uint256",
          "name": "",
          "type": "uint256"
        }
      ],
      "stateMutability": "view",
      "type": "function"
    },
    {
      "inputs": [
        {
          "internalType": "address",
          "name": "from",
          "type": "address"
        },
        {
          "internalType": "address",
          "name": "to",
          "type": "address"
        },
        {
          "internalType": "uint256",
          "name": "tokenId",
          "type": "uint256"
        }
      ],
      "name": "transferFrom",
      "outputs": [],
      "stateMutability": "nonpayable",
      "type": "function"
    },
    {
      "inputs": [
        {
          "internalType": "address",
          "name": "newOwner",
          "type": "address"
        }
      ],
      "name": "transferOwnership",
      "outputs": [],
      "stateMutability": "nonpayable",
      "type": "function"
    }
  ],
  "bytecode": "0x60806040523480156200001157600080fd5b506040518060400160405280600f81526020017f456d6f74696f6e616c53686170657300000000000000000000000000000000008152506040518060400160405280600381526020017f4553530000000000000000000000000000000000000000000000000000000000815250816000908051906020019062000096929190620001a6565b508060019080519060200190620000af929190620001a6565b505050620000d2620000c6620000d860201b60201c565b620000e060201b60201c565b620002bb565b600033905090565b6000600a60009054906101000a900473ffffffffffffffffffffffffffffffffffffffff16905081600a60006101000a81548173ffffffffffffffffffffffffffffffffffffffff021916908373ffffffffffffffffffffffffffffffffffffffff1602179055508173ffffffffffffffffffffffffffffffffffffffff168173ffffffffffffffffffffffffffffffffffffffff167f8be0079c531659141344cd1fd0a4f28419497f9722a3daafe3b4186f6b6457e060405160405180910390a35050565b828054620001b49062000256565b90600052602060002090601f016020900481019282620001d8576000855562000224565b82601f10620001f357805160ff191683800117855562000224565b8280016001018555821562000224579182015b828111156200022357825182559160200191906001019062000206565b5b50905062000233919062000237565b5090565b5b808211156200025257600081600090555060010162000238565b5090565b600060028204905060018216806200026f57607f821691505b602082108114156200028657620002856200028c565b5b50919050565b7f4e487b7100000000000000000000000000000000000000000000000000000000600052602260045260246000fd5b613ac980620002cb6000396000f3fe608060405234801561001057600080fd5b50600436106101585760003560e01c80636a627842116100c3578063b0f695231161007c578063b0f69523146103ee578063b88d4fde1461040a578063b8bb6d6e14610426578063c87b56dd14610442578063e985e9c514610472578063f2fde38b146104a257610158565b80636a6278421461032c57806370a082311461035c578063715018a61461038c5780638da5cb5b1461039657806395d89b41146103b4578063a22cb465146103d257610158565b80632f745c59116101155780632f745c591461023157806340d097c31461026157806342842e0e1461027d5780634f6ccce7146102995780636352211e146102c957806365c13850146102f957610158565b806301ffc9a71461015d57806306fdde031461018d578063081812fc146101ab578063095ea7b3146101db57806318160ddd146101f757806323b872dd14610215575b600080fd5b6101776004803603810190610172919061298e565b6104be565b6040516101849190612dfd565b60405180910390f35b6101956104d0565b6040516101a29190612e5d565b60405180910390f35b6101c560048036038101906101c091906129e0565b610562565b6040516101d29190612d96565b60405180910390f35b6101f560048036038101906101f09190612903565b6105e7565b005b6101ff6106ff565b60405161020c91906130df565b60405180910390f35b61022f600480360381019061022a91906127fd565b61070c565b005b61024b60048036038101906102469190612903565b61076c565b60405161025891906130df565b60405180910390f35b61027b60048036038101906102769190612798565b610811565b005b610297600480360381019061029291906127fd565b6108b3565b005b6102b360048036038101906102ae91906129e0565b6108d3565b6040516102c091906130df565b60405180910390f35b6102e360048036038101906102de91906129e0565b61096a565b6040516102f09190612d96565b60405180910390f35b610313600480360381019061030e91906129e0565b610a1c565b6040516103239493929190612e18565b60405180910390f35b61034660048036038101906103419190612798565b610a99565b60405161035391906130df565b60405180910390f35b61037660048036038101906103719190612798565b610adf565b60405161038391906130df565b60405180910390f35b610394610b97565b005b61039e610c1f565b6040516103ab9190612d96565b60405180910390f35b6103bc610c49565b6040516103c99190612e5d565b60405180910390f35b6103ec60048036038101906103e791906128c7565b610cdb565b005b6104086004803603810190610403919061293f565b610cf1565b005b610424600480360381019061041f919061284c565b610e85565b005b610440600480360381019061043b91906129e0565b610ee7565b005b61045c600480360381019061045791906129e0565b6110c5565b6040516104699190612e5d565b60405180910390f35b61048c600480360381019061048791906127c1565b61116c565b6040516104999190612dfd565b60405180910390f35b6104bc60048036038101906104b79190612798565b611200565b005b60006104c9826112f8565b9050919050565b6060600080546104df90613304565b80601f016020809104026020016040519081016040528092919081815260200182805461050b90613304565b80156105585780601f1061052d57610100808354040283529160200191610558565b820191906000526020600020905b81548152906001019060200180831161053b57829003601f168201915b5050505050905090565b600061056d82611372565b6105ac576040517f08c379a00000000000000000000000000000000000000000000000000000000081526004016105a390612fff565b60405180910390fd5b6004600083815260200190815260200160002060009054906101000a900473ffffffffffffffffffffffffffffffffffffffff169050919050565b60006105f28261096a565b90508073ffffffffffffffffffffffffffffffffffffffff168373ffffffffffffffffffffffffffffffffffffffff161415610663576040517f08c379a000000000000000000000000000000000000000000000000000000000815260040161065a9061305f565b60405180910390fd5b8073ffffffffffffffffffffffffffffffffffffffff166106826113de565b73ffffffffffffffffffffffffffffffffffffffff1614806106b157506106b0816106ab6113de565b61116c565b5b6106f0576040517f08c379a00000000000000000000000000000000000000000000000000000000081526004016106e790612f7f565b60405180910390fd5b6106fa83836113e6565b505050565b6000600880549050905090565b61071d6107176113de565b8261149f565b61075c576040517f08c379a00000000000000000000000000000000000000000000000000000000081526004016107539061307f565b60405180910390fd5b61076783838361157d565b505050565b600061077783610adf565b82106107b8576040517f08c379a00000000000000000000000000000000000000000000000000000000081526004016107af90612e7f565b60405180910390fd5b600660008473ffffffffffffffffffffffffffffffffffffffff1673ffffffffffffffffffffffffffffffffffffffff168152602001908152602001600020600083815260200190815260200160002054905092915050565b6108196113de565b73ffffffffffffffffffffffffffffffffffffffff16610837610c1f565b73ffffffffffffffffffffffffffffffffffffffff161461088d576040517f08c379a00000000000000000000000000000000000000000000000000000000081526004016108849061301f565b60405180910390fd5b6000610899600b6117e4565b90506108a5600b6117f2565b6108af8282611808565b5050565b6108ce83838360405180602001604052806000815250610e85565b505050565b60006108dd6106ff565b821061091e576040517f08c379a00000000000000000000000000000000000000000000000000000000081526004016109159061309f565b60405180910390fd5b60088281548110610958577f4e487b7100000000000000000000000000000000000000000000000000000000600052603260045260246000fd5b90600052602060002001549050919050565b6000806002600084815260200190815260200160002060009054906101000a900473ffffffffffffffffffffffffffffffffffffffff169050600073ffffffffffffffffffffffffffffffffffffffff168173ffffffffffffffffffffffffffffffffffffffff161415610a13576040517f08c379a0000000000000000000000000000000000000000000000000000000008152600401610a0a90612fbf565b60405180910390fd5b80915050919050565b600c6020528060005260406000206000915090508060000160009054906101000a900460ff16908060000160019054906101000a900473ffffffffffffffffffffffffffffffffffffffff16908060010160009054906101000a900473ffffffffffffffffffffffffffffffffffffffff16908060020154905084565b60006003610aa7600b6117e4565b10610ab157600080fd5b610abb600b6117f2565b610ace82610ac9600b6117e4565b611808565b610ad8600b6117e4565b9050919050565b60008073ffffffffffffffffffffffffffffffffffffffff168273ffffffffffffffffffffffffffffffffffffffff161415610b50576040517f08c379a0000000000000000000000000000000000000000000000000000000008152600401610b4790612f9f565b60405180910390fd5b600360008373ffffffffffffffffffffffffffffffffffffffff1673ffffffffffffffffffffffffffffffffffffffff168152602001908152602001600020549050919050565b610b9f6113de565b73ffffffffffffffffffffffffffffffffffffffff16610bbd610c1f565b73ffffffffffffffffffffffffffffffffffffffff1614610c13576040517f08c379a0000000000000000000000000000000000000000000000000000000008152600401610c0a9061301f565b60405180910390fd5b610c1d6000611826565b565b6000600a60009054906101000a900473ffffffffffffffffffffffffffffffffffffffff16905090565b606060018054610c5890613304565b80601f0160208091040260200160405190810160405280929190818152602001828054610c8490613304565b8015610cd15780601f10610ca657610100808354040283529160200191610cd1565b820191906000526020600020905b815481529060010190602001808311610cb457829003601f168201915b5050505050905090565b610ced610ce66113de565b83836118ec565b5050565b610cfc33848461157d565b60405180608001604052806001151581526020013373ffffffffffffffffffffffffffffffffffffffff1681526020018473ffffffffffffffffffffffffffffffffffffffff16815260200182815250600c600084815260200190815260200160002060008201518160000160006101000a81548160ff02191690831515021790555060208201518160000160016101000a81548173ffffffffffffffffffffffffffffffffffffffff021916908373ffffffffffffffffffffffffffffffffffffffff16021790555060408201518160010160006101000a81548173ffffffffffffffffffffffffffffffffffffffff021916908373ffffffffffffffffffffffffffffffffffffffff160217905550606082015181600201559050508273ffffffffffffffffffffffffffffffffffffffff163373ffffffffffffffffffffffffffffffffffffffff16837f7dae66d475361a8bb7f184659d94e913b124102c2f9536297faeeae42f7728cd84604051610e7891906130df565b60405180910390a4505050565b610e96610e906113de565b8361149f565b610ed5576040517f08c379a0000000000000000000000000000000000000000000000000000000008152600401610ecc9061307f565b60405180910390fd5b610ee184848484611a59565b50505050565b6000600c600083815260200190815260200160002090508060010160009054906101000a900473ffffffffffffffffffffffffffffffffffffffff1673ffffffffffffffffffffffffffffffffffffffff163373ffffffffffffffffffffffffffffffffffffffff161480610f60575080600201544210155b610f9f576040517f08c379a0000000000000000000000000000000000000000000000000000000008152600401610f96906130bf565b60405180910390fd5b60008160000160006101000a81548160ff02191690831515021790555061100f8160010160009054906101000a900473ffffffffffffffffffffffffffffffffffffffff168260000160019054906101000a900473ffffffffffffffffffffffffffffffffffffffff168461157d565b8060010160009054906101000a900473ffffffffffffffffffffffffffffffffffffffff1673ffffffffffffffffffffffffffffffffffffffff168160000160019054906101000a900473ffffffffffffffffffffffffffffffffffffffff1673ffffffffffffffffffffffffffffffffffffffff16837fb4f2b647dc18569eba62b11f122880500d1515889abed7180acfcf8dd452b56084600201546040516110b991906130df565b60405180910390a45050565b60606110d082611372565b61110f576040517f08c379a00000000000000000000000000000000000000000000000000000000081526004016111069061303f565b60405180910390fd5b6000611119611ab5565b905060008151116111395760405180602001604052806000815250611164565b8061114384611ad5565b604051602001611154929190612d72565b6040516020818303038152906040525b915050919050565b6000600560008473ffffffffffffffffffffffffffffffffffffffff1673ffffffffffffffffffffffffffffffffffffffff16815260200190815260200160002060008373ffffffffffffffffffffffffffffffffffffffff1673ffffffffffffffffffffffffffffffffffffffff16815260200190815260200160002060009054906101000a900460ff16905092915050565b6112086113de565b73ffffffffffffffffffffffffffffffffffffffff16611226610c1f565b73ffffffffffffffffffffffffffffffffffffffff161461127c576040517f08c379a00000000000000000000000000000000000000000000000000000000081526004016112739061301f565b60405180910390fd5b600073ffffffffffffffffffffffffffffffffffffffff168173ffffffffffffffffffffffffffffffffffffffff1614156112ec576040517f08c379a00000000000000000000000000000000000000000000000000000000081526004016112e390612ebf565b60405180910390fd5b6112f581611826565b50565b60007f780e9d63000000000000000000000000000000000000000000000000000000007bffffffffffffffffffffffffffffffffffffffffffffffffffffffff1916827bffffffffffffffffffffffffffffffffffffffffffffffffffffffff1916148061136b575061136a82611c82565b5b9050919050565b60008073ffffffffffffffffffffffffffffffffffffffff166002600084815260200190815260200160002060009054906101000a900473ffffffffffffffffffffffffffffffffffffffff1673ffffffffffffffffffffffffffffffffffffffff1614159050919050565b600033905090565b816004600083815260200190815260200160002060006101000a81548173ffffffffffffffffffffffffffffffffffffffff021916908373ffffffffffffffffffffffffffffffffffffffff160217905550808273ffffffffffffffffffffffffffffffffffffffff166114598361096a565b73ffffffffffffffffffffffffffffffffffffffff167f8c5be1e5ebec7d5bd14f71427d1e84f3dd0314c0f7b2291e5b200ac8c7c3b92560405160405180910390a45050565b60006114aa82611372565b6114e9576040517f08c379a00000000000000000000000000000000000000000000000000000000081526004016114e090612f5f565b60405180910390fd5b60006114f48361096a565b90508073ffffffffffffffffffffffffffffffffffffffff168473ffffffffffffffffffffffffffffffffffffffff1614806115365750611535818561116c565b5b8061157457508373ffffffffffffffffffffffffffffffffffffffff1661155c84610562565b73ffffffffffffffffffffffffffffffffffffffff16145b91505092915050565b8273ffffffffffffffffffffffffffffffffffffffff1661159d8261096a565b73ffffffffffffffffffffffffffffffffffffffff16146115f3576040517f08c379a00000000000000000000000000000000000000000000000000000000081526004016115ea90612edf565b60405180910390fd5b600073ffffffffffffffffffffffffffffffffffffffff168273ffffffffffffffffffffffffffffffffffffffff161415611663576040517f08c379a000000000000000000000000000000000000000000000000000000000815260040161165a90612f1f565b60405180910390fd5b61166e838383611d64565b6116796000826113e6565b6001600360008573ffffffffffffffffffffffffffffffffffffffff1673ffffffffffffffffffffffffffffffffffffffff16815260200190815260200160002060008282546116c9919061321a565b925050819055506001600360008473ffffffffffffffffffffffffffffffffffffffff1673ffffffffffffffffffffffffffffffffffffffff16815260200190815260200160002060008282546117209190613193565b92505081905550816002600083815260200190815260200160002060006101000a81548173ffffffffffffffffffffffffffffffffffffffff021916908373ffffffffffffffffffffffffffffffffffffffff160217905550808273ffffffffffffffffffffffffffffffffffffffff168473ffffffffffffffffffffffffffffffffffffffff167fddf252ad1be2c89b69c2b068fc378daa952ba7f163c4a11628f55a4df523b3ef60405160405180910390a46117df838383611dd8565b505050565b600081600001549050919050565b6001816000016000828254019250508190555050565b611822828260405180602001604052806000815250611ddd565b5050565b6000600a60009054906101000a900473ffffffffffffffffffffffffffffffffffffffff16905081600a60006101000a81548173ffffffffffffffffffffffffffffffffffffffff021916908373ffffffffffffffffffffffffffffffffffffffff1602179055508173ffffffffffffffffffffffffffffffffffffffff168173ffffffffffffffffffffffffffffffffffffffff167f8be0079c531659141344cd1fd0a4f28419497f9722a3daafe3b4186f6b6457e060405160405180910390a35050565b8173ffffffffffffffffffffffffffffffffffffffff168373ffffffffffffffffffffffffffffffffffffffff16141561195b576040517f08c379a000000000000000000000000000000000000000000000000000000000815260040161195290612f3f565b60405180910390fd5b80600560008573ffffffffffffffffffffffffffffffffffffffff1673ffffffffffffffffffffffffffffffffffffffff16815260200190815260200160002060008473ffffffffffffffffffffffffffffffffffffffff1673ffffffffffffffffffffffffffffffffffffffff16815260200190815260200160002060006101000a81548160ff0219169083151502179055508173ffffffffffffffffffffffffffffffffffffffff168373ffffffffffffffffffffffffffffffffffffffff167f17307eab39ab6107e8899845ad3d59bd9653f200f220920489ca2b5937696c3183604051611a4c9190612dfd565b60405180910390a3505050565b611a6484848461157d565b611a7084848484611e38565b611aaf576040517f08c379a0000000000000000000000000000000000000000000000000000000008152600401611aa690612e9f565b60405180910390fd5b50505050565b6060604051806080016040528060448152602001613a5060449139905090565b60606000821415611b1d576040518060400160405280600181526020017f30000000000000000000000000000000000000000000000000000000000000008152509050611c7d565b600082905060005b60008214611b4f578080611b3890613367565b915050600a82611b4891906131e9565b9150611b25565b60008167ffffffffffffffff811115611b91577f4e487b7100000000000000000000000000000000000000000000000000000000600052604160045260246000fd5b6040519080825280601f01601f191660200182016040528015611bc35781602001600182028036833780820191505090505b5090505b60008514611c7657600182611bdc919061321a565b9150600a85611beb91906133b0565b6030611bf79190613193565b60f81b818381518110611c33577f4e487b7100000000000000000000000000000000000000000000000000000000600052603260045260246000fd5b60200101907effffffffffffffffffffffffffffffffffffffffffffffffffffffffffffff1916908160001a905350600a85611c6f91906131e9565b9450611bc7565b8093505050505b919050565b60007f80ac58cd000000000000000000000000000000000000000000000000000000007bffffffffffffffffffffffffffffffffffffffffffffffffffffffff1916827bffffffffffffffffffffffffffffffffffffffffffffffffffffffff19161480611d4d57507f5b5e139f000000000000000000000000000000000000000000000000000000007bffffffffffffffffffffffffffffffffffffffffffffffffffffffff1916827bffffffffffffffffffffffffffffffffffffffffffffffffffffffff1916145b80611d5d5750611d5c82611fcf565b5b9050919050565b600c600082815260200190815260200160002060000160009054906101000a900460ff1615611dc8576040517f08c379a0000000000000000000000000000000000000000000000000000000008152600401611dbf906130bf565b60405180910390fd5b611dd3838383612039565b505050565b505050565b611de7838361214d565b611df46000848484611e38565b611e33576040517f08c379a0000000000000000000000000000000000000000000000000000000008152600401611e2a90612e9f565b60405180910390fd5b505050565b6000611e598473ffffffffffffffffffffffffffffffffffffffff16612327565b15611fc2578373ffffffffffffffffffffffffffffffffffffffff1663150b7a02611e826113de565b8786866040518563ffffffff1660e01b8152600401611ea49493929190612db1565b602060405180830381600087803b158015611ebe57600080fd5b505af1925050508015611eef57506040513d601f19601f82011682018060405250810190611eec91906129b7565b60015b611f72573d8060008114611f1f576040519150601f19603f3d011682016040523d82523d6000602084013e611f24565b606091505b50600081511415611f6a576040517f08c379a0000000000000000000000000000000000000000000000000000000008152600401611f6190612e9f565b60405180910390fd5b805181602001fd5b63150b7a0260e01b7bffffffffffffffffffffffffffffffffffffffffffffffffffffffff1916817bffffffffffffffffffffffffffffffffffffffffffffffffffffffff191614915050611fc7565b600190505b949350505050565b60007f01ffc9a7000000000000000000000000000000000000000000000000000000007bffffffffffffffffffffffffffffffffffffffffffffffffffffffff1916827bffffffffffffffffffffffffffffffffffffffffffffffffffffffff1916149050919050565b61204483838361234a565b600073ffffffffffffffffffffffffffffffffffffffff168373ffffffffffffffffffffffffffffffffffffffff161415612087576120828161234f565b6120c6565b8173ffffffffffffffffffffffffffffffffffffffff168373ffffffffffffffffffffffffffffffffffffffff16146120c5576120c48382612398565b5b5b600073ffffffffffffffffffffffffffffffffffffffff168273ffffffffffffffffffffffffffffffffffffffff1614156121095761210481612505565b612148565b8273ffffffffffffffffffffffffffffffffffffffff168273ffffffffffffffffffffffffffffffffffffffff1614612147576121468282612648565b5b5b505050565b600073ffffffffffffffffffffffffffffffffffffffff168273ffffffffffffffffffffffffffffffffffffffff1614156121bd576040517f08c379a00000000000000000000000000000000000000000000000000000000081526004016121b490612fdf565b60405180910390fd5b6121c681611372565b15612206576040517f08c379a00000000000000000000000000000000000000000000000000000000081526004016121fd90612eff565b60405180910390fd5b61221260008383611d64565b6001600360008473ffffffffffffffffffffffffffffffffffffffff1673ffffffffffffffffffffffffffffffffffffffff16815260200190815260200160002060008282546122629190613193565b92505081905550816002600083815260200190815260200160002060006101000a81548173ffffffffffffffffffffffffffffffffffffffff021916908373ffffffffffffffffffffffffffffffffffffffff160217905550808273ffffffffffffffffffffffffffffffffffffffff16600073ffffffffffffffffffffffffffffffffffffffff167fddf252ad1be2c89b69c2b068fc378daa952ba7f163c4a11628f55a4df523b3ef60405160405180910390a461232360008383611dd8565b5050565b6000808273ffffffffffffffffffffffffffffffffffffffff163b119050919050565b505050565b6008805490506009600083815260200190815260200160002081905550600881908060018154018082558091505060019003906000526020600020016000909190919091505550565b600060016123a584610adf565b6123af919061321a565b9050600060076000848152602001908152602001600020549050818114612494576000600660008673ffffffffffffffffffffffffffffffffffffffff1673ffffffffffffffffffffffffffffffffffffffff168152602001908152602001600020600084815260200190815260200160002054905080600660008773ffffffffffffffffffffffffffffffffffffffff1673ffffffffffffffffffffffffffffffffffffffff168152602001908152602001600020600084815260200190815260200160002081905550816007600083815260200190815260200160002081905550505b6007600084815260200190815260200160002060009055600660008573ffffffffffffffffffffffffffffffffffffffff1673ffffffffffffffffffffffffffffffffffffffff16815260200190815260200160002060008381526020019081526020016000206000905550505050565b60006001600880549050612519919061321a565b905060006009600084815260200190815260200160002054905060006008838154811061256f577f4e487b7100000000000000000000000000000000000000000000000000000000600052603260045260246000fd5b9060005260206000200154905080600883815481106125b7577f4e487b7100000000000000000000000000000000000000000000000000000000600052603260045260246000fd5b90600052602060002001819055508160096000838152602001908152602001600020819055506009600085815260200190815260200160002060009055600880548061262c577f4e487b7100000000000000000000000000000000000000000000000000000000600052603160045260246000fd5b6001900381819060005260206000200160009055905550505050565b600061265383610adf565b905081600660008573ffffffffffffffffffffffffffffffffffffffff1673ffffffffffffffffffffffffffffffffffffffff168152602001908152602001600020600083815260200190815260200160002081905550806007600084815260200190815260200160002081905550505050565b60006126da6126d58461311f565b6130fa565b9050828152602081018484840111156126f257600080fd5b6126fd8482856132c2565b509392505050565b600081359050612714816139f3565b92915050565b60008135905061272981613a0a565b92915050565b60008135905061273e81613a21565b92915050565b60008151905061275381613a21565b92915050565b600082601f83011261276a57600080fd5b813561277a8482602086016126c7565b91505092915050565b60008135905061279281613a38565b92915050565b6000602082840312156127aa57600080fd5b60006127b884828501612705565b91505092915050565b600080604083850312156127d457600080fd5b60006127e285828601612705565b92505060206127f385828601612705565b9150509250929050565b60008060006060848603121561281257600080fd5b600061282086828701612705565b935050602061283186828701612705565b925050604061284286828701612783565b9150509250925092565b6000806000806080858703121561286257600080fd5b600061287087828801612705565b945050602061288187828801612705565b935050604061289287828801612783565b925050606085013567ffffffffffffffff8111156128af57600080fd5b6128bb87828801612759565b91505092959194509250565b600080604083850312156128da57600080fd5b60006128e885828601612705565b92505060206128f98582860161271a565b9150509250929050565b6000806040838503121561291657600080fd5b600061292485828601612705565b925050602061293585828601612783565b9150509250929050565b60008060006060848603121561295457600080fd5b600061296286828701612705565b935050602061297386828701612783565b925050604061298486828701612783565b9150509250925092565b6000602082840312156129a057600080fd5b60006129ae8482850161272f565b91505092915050565b6000602082840312156129c957600080fd5b60006129d784828501612744565b91505092915050565b6000602082840312156129f257600080fd5b6000612a0084828501612783565b91505092915050565b612a128161324e565b82525050565b612a2181613260565b82525050565b6000612a3282613150565b612a3c8185613166565b9350612a4c8185602086016132d1565b612a558161349d565b840191505092915050565b6000612a6b8261315b565b612a758185613177565b9350612a858185602086016132d1565b612a8e8161349d565b840191505092915050565b6000612aa48261315b565b612aae8185613188565b9350612abe8185602086016132d1565b80840191505092915050565b6000612ad7602b83613177565b9150612ae2826134ae565b604082019050919050565b6000612afa603283613177565b9150612b05826134fd565b604082019050919050565b6000612b1d602683613177565b9150612b288261354c565b604082019050919050565b6000612b40602583613177565b9150612b4b8261359b565b604082019050919050565b6000612b63601c83613177565b9150612b6e826135ea565b602082019050919050565b6000612b86602483613177565b9150612b9182613613565b604082019050919050565b6000612ba9601983613177565b9150612bb482613662565b602082019050919050565b6000612bcc602c83613177565b9150612bd78261368b565b604082019050919050565b6000612bef603883613177565b9150612bfa826136da565b604082019050919050565b6000612c12602a83613177565b9150612c1d82613729565b604082019050919050565b6000612c35602983613177565b9150612c4082613778565b604082019050919050565b6000612c58602083613177565b9150612c63826137c7565b602082019050919050565b6000612c7b602c83613177565b9150612c86826137f0565b604082019050919050565b6000612c9e602083613177565b9150612ca98261383f565b602082019050919050565b6000612cc1602f83613177565b9150612ccc82613868565b604082019050919050565b6000612ce4602183613177565b9150612cef826138b7565b604082019050919050565b6000612d07603183613177565b9150612d1282613906565b604082019050919050565b6000612d2a602c83613177565b9150612d3582613955565b604082019050919050565b6000612d4d602183613177565b9150612d58826139a4565b604082019050919050565b612d6c816132b8565b82525050565b6000612d7e8285612a99565b9150612d8a8284612a99565b91508190509392505050565b6000602082019050612dab6000830184612a09565b92915050565b6000608082019050612dc66000830187612a09565b612dd36020830186612a09565b612de06040830185612d63565b8181036060830152612df28184612a27565b905095945050505050565b6000602082019050612e126000830184612a18565b92915050565b6000608082019050612e2d6000830187612a18565b612e3a6020830186612a09565b612e476040830185612a09565b612e546060830184612d63565b95945050505050565b60006020820190508181036000830152612e778184612a60565b905092915050565b60006020820190508181036000830152612e9881612aca565b9050919050565b60006020820190508181036000830152612eb881612aed565b9050919050565b60006020820190508181036000830152612ed881612b10565b9050919050565b60006020820190508181036000830152612ef881612b33565b9050919050565b60006020820190508181036000830152612f1881612b56565b9050919050565b60006020820190508181036000830152612f3881612b79565b9050919050565b60006020820190508181036000830152612f5881612b9c565b9050919050565b60006020820190508181036000830152612f7881612bbf565b9050919050565b60006020820190508181036000830152612f9881612be2565b9050919050565b60006020820190508181036000830152612fb881612c05565b9050919050565b60006020820190508181036000830152612fd881612c28565b9050919050565b60006020820190508181036000830152612ff881612c4b565b9050919050565b6000602082019050818103600083015261301881612c6e565b9050919050565b6000602082019050818103600083015261303881612c91565b9050919050565b6000602082019050818103600083015261305881612cb4565b9050919050565b6000602082019050818103600083015261307881612cd7565b9050919050565b6000602082019050818103600083015261309881612cfa565b9050919050565b600060208201905081810360008301526130b881612d1d565b9050919050565b600060208201905081810360008301526130d881612d40565b9050919050565b60006020820190506130f46000830184612d63565b92915050565b6000613104613115565b90506131108282613336565b919050565b6000604051905090565b600067ffffffffffffffff82111561313a5761313961346e565b5b6131438261349d565b9050602081019050919050565b600081519050919050565b600081519050919050565b600082825260208201905092915050565b600082825260208201905092915050565b600081905092915050565b600061319e826132b8565b91506131a9836132b8565b9250827fffffffffffffffffffffffffffffffffffffffffffffffffffffffffffffffff038211156131de576131dd6133e1565b5b828201905092915050565b60006131f4826132b8565b91506131ff836132b8565b92508261320f5761320e613410565b5b828204905092915050565b6000613225826132b8565b9150613230836132b8565b925082821015613243576132426133e1565b5b828203905092915050565b600061325982613298565b9050919050565b60008115159050919050565b60007fffffffff0000000000000000000000000000000000000000000000000000000082169050919050565b600073ffffffffffffffffffffffffffffffffffffffff82169050919050565b6000819050919050565b82818337600083830152505050565b60005b838110156132ef5780820151818401526020810190506132d4565b838111156132fe576000848401525b50505050565b6000600282049050600182168061331c57607f821691505b602082108114156133305761332f61343f565b5b50919050565b61333f8261349d565b810181811067ffffffffffffffff8211171561335e5761335d61346e565b5b80604052505050565b6000613372826132b8565b91507fffffffffffffffffffffffffffffffffffffffffffffffffffffffffffffffff8214156133a5576133a46133e1565b5b600182019050919050565b60006133bb826132b8565b91506133c6836132b8565b9250826133d6576133d5613410565b5b828206905092915050565b7f4e487b7100000000000000000000000000000000000000000000000000000000600052601160045260246000fd5b7f4e487b7100000000000000000000000000000000000000000000000000000000600052601260045260246000fd5b7f4e487b7100000000000000000000000000000000000000000000000000000000600052602260045260246000fd5b7f4e487b7100000000000000000000000000000000000000000000000000000000600052604160045260246000fd5b6000601f19601f8301169050919050565b7f455243373231456e756d657261626c653a206f776e657220696e646578206f7560008201527f74206f6620626f756e6473000000000000000000000000000000000000000000602082015250565b7f4552433732313a207472616e7366657220746f206e6f6e20455243373231526560008201527f63656976657220696d706c656d656e7465720000000000000000000000000000602082015250565b7f4f776e61626c653a206e6577206f776e657220697320746865207a65726f206160008201527f6464726573730000000000000000000000000000000000000000000000000000602082015250565b7f4552433732313a207472616e736665722066726f6d20696e636f72726563742060008201527f6f776e6572000000000000000000000000000000000000000000000000000000602082015250565b7f4552433732313a20746f6b656e20616c7265616479206d696e74656400000000600082015250565b7f4552433732313a207472616e7366657220746f20746865207a65726f2061646460008201527f7265737300000000000000000000000000000000000000000000000000000000602082015250565b7f4552433732313a20617070726f766520746f2063616c6c657200000000000000600082015250565b7f4552433732313a206f70657261746f7220717565727920666f72206e6f6e657860008201527f697374656e7420746f6b656e0000000000000000000000000000000000000000602082015250565b7f4552433732313a20617070726f76652063616c6c6572206973206e6f74206f7760008201527f6e6572206e6f7220617070726f76656420666f7220616c6c0000000000000000602082015250565b7f4552433732313a2062616c616e636520717565727920666f7220746865207a6560008201527f726f206164647265737300000000000000000000000000000000000000000000602082015250565b7f4552433732313a206f776e657220717565727920666f72206e6f6e657869737460008201527f656e7420746f6b656e0000000000000000000000000000000000000000000000602082015250565b7f4552433732313a206d696e7420746f20746865207a65726f2061646472657373600082015250565b7f4552433732313a20617070726f76656420717565727920666f72206e6f6e657860008201527f697374656e7420746f6b656e0000000000000000000000000000000000000000602082015250565b7f4f776e61626c653a2063616c6c6572206973206e6f7420746865206f776e6572600082015250565b7f4552433732314d657461646174613a2055524920717565727920666f72206e6f60008201527f6e6578697374656e7420746f6b656e0000000000000000000000000000000000602082015250565b7f4552433732313a20617070726f76616c20746f2063757272656e74206f776e6560008201527f7200000000000000000000000000000000000000000000000000000000000000602082015250565b7f4552433732313a207472616e736665722063616c6c6572206973206e6f74206f60008201527f776e6572206e6f7220617070726f766564000000000000000000000000000000602082015250565b7f455243373231456e756d657261626c653a20676c6f62616c20696e646578206f60008201527f7574206f6620626f756e64730000000000000000000000000000000000000000602082015250565b7f52656e7461626c654e46543a207468697320746f6b656e2069732072656e746560008201527f6400000000000000000000000000000000000000000000000000000000000000602082015250565b6139fc8161324e565b8114613a0757600080fd5b50565b613a1381613260565b8114613a1e57600080fd5b50565b613a2a8161326c565b8114613a3557600080fd5b50565b613a41816132b8565b8114613a4c57600080fd5b5056fe68747470733a2f2f3239575079614567495154366d327059684843586b70744145366b5f63665133635a797542505734707041685832566b2f6170692f6572633732312fa2646970667358221220ad35c1ced0e8f8f5b65d9e64f25eafd04ea252aedaa186b23922fa771e642af464736f6c63430008010033",
  "linkReferences": {},
  "deployedLinkReferences": {}
}